{
  "contractName": "OracleIDDescriptions",
  "abi": [
    {
      "inputs": [],
      "payable": false,
      "stateMutability": "nonpayable",
      "type": "constructor"
    },
    {
      "anonymous": false,
      "inputs": [
        {
          "indexed": false,
          "internalType": "uint256",
          "name": "_tellorStatus",
          "type": "uint256"
        },
        {
          "indexed": false,
          "internalType": "int256",
          "name": "_status",
          "type": "int256"
        }
      ],
      "name": "StatusMapped",
      "type": "event"
    },
    {
      "anonymous": false,
      "inputs": [
        {
          "indexed": false,
          "internalType": "uint256",
          "name": "_requestID",
          "type": "uint256"
        },
        {
          "indexed": false,
          "internalType": "bytes32",
          "name": "_id",
          "type": "bytes32"
        }
      ],
      "name": "TellorIdMappedToBytes",
      "type": "event"
    },
    {
      "constant": true,
      "inputs": [],
      "name": "owner",
      "outputs": [
        {
          "internalType": "address",
          "name": "",
          "type": "address"
        }
      ],
      "payable": false,
      "stateMutability": "view",
      "type": "function"
    },
    {
      "constant": false,
      "inputs": [
        {
          "internalType": "address payable",
          "name": "newOwner",
          "type": "address"
        }
      ],
      "name": "transferOwnership",
      "outputs": [],
      "payable": false,
      "stateMutability": "nonpayable",
      "type": "function"
    },
    {
      "constant": false,
      "inputs": [
        {
          "internalType": "uint256",
          "name": "_tellorStatus",
          "type": "uint256"
        },
        {
          "internalType": "int256",
          "name": "_status",
          "type": "int256"
        }
      ],
      "name": "defineTellorCodeToStatusCode",
      "outputs": [],
      "payable": false,
      "stateMutability": "nonpayable",
      "type": "function"
    },
    {
      "constant": false,
      "inputs": [
        {
          "internalType": "uint256",
          "name": "_requestID",
          "type": "uint256"
        },
        {
          "internalType": "bytes32",
          "name": "_id",
          "type": "bytes32"
        }
      ],
      "name": "defineTellorIdToBytesID",
      "outputs": [],
      "payable": false,
      "stateMutability": "nonpayable",
      "type": "function"
    },
    {
      "constant": true,
      "inputs": [
        {
          "internalType": "int256",
          "name": "_status",
          "type": "int256"
        }
      ],
      "name": "getTellorStatusFromStatus",
      "outputs": [
        {
          "internalType": "uint256",
          "name": "_tellorStatus",
          "type": "uint256"
        }
      ],
      "payable": false,
      "stateMutability": "view",
      "type": "function"
    },
    {
      "constant": true,
      "inputs": [
        {
          "internalType": "uint256",
          "name": "_tellorStatus",
          "type": "uint256"
        }
      ],
      "name": "getStatusFromTellorStatus",
      "outputs": [
        {
          "internalType": "int256",
          "name": "_status",
          "type": "int256"
        }
      ],
      "payable": false,
      "stateMutability": "view",
      "type": "function"
    },
    {
      "constant": true,
      "inputs": [
        {
          "internalType": "bytes32",
          "name": "_id",
          "type": "bytes32"
        }
      ],
      "name": "getTellorIdFromBytes",
      "outputs": [
        {
          "internalType": "uint256",
          "name": "_requestId",
          "type": "uint256"
        }
      ],
      "payable": false,
      "stateMutability": "view",
      "type": "function"
    },
    {
      "constant": true,
      "inputs": [
        {
          "internalType": "uint256",
          "name": "_requestId",
          "type": "uint256"
        }
      ],
      "name": "getBytesFromTellorID",
      "outputs": [
        {
          "internalType": "bytes32",
          "name": "_id",
          "type": "bytes32"
        }
      ],
      "payable": false,
      "stateMutability": "view",
      "type": "function"
    }
  ],
  "bytecode": "0x608060405234801561001057600080fd5b5033600460006101000a81548173ffffffffffffffffffffffffffffffffffffffff021916908373ffffffffffffffffffffffffffffffffffffffff1602179055506106d3806100616000396000f3fe608060405234801561001057600080fd5b50600436106100885760003560e01c8063b70b19cb1161005b578063b70b19cb14610193578063c4e9e950146101d5578063d271d77e14610217578063f2fde38b1461024f57610088565b80630a3ff7db1461008d5780635aa6fdd1146100cf57806367cfa3f8146101075780638da5cb5b14610149575b600080fd5b6100b9600480360360208110156100a357600080fd5b8101908080359060200190929190505050610293565b6040518082815260200191505060405180910390f35b610105600480360360408110156100e557600080fd5b8101908080359060200190929190803590602001909291905050506102af565b005b6101336004803603602081101561011d57600080fd5b81019080803590602001909291905050506103e4565b6040518082815260200191505060405180910390f35b610151610401565b604051808273ffffffffffffffffffffffffffffffffffffffff1673ffffffffffffffffffffffffffffffffffffffff16815260200191505060405180910390f35b6101bf600480360360208110156101a957600080fd5b8101908080359060200190929190505050610427565b6040518082815260200191505060405180910390f35b610201600480360360208110156101eb57600080fd5b8101908080359060200190929190505050610444565b6040518082815260200191505060405180910390f35b61024d6004803603604081101561022d57600080fd5b810190808035906020019092919080359060200190929190505050610461565b005b6102916004803603602081101561026557600080fd5b81019080803573ffffffffffffffffffffffffffffffffffffffff169060200190929190505050610597565b005b6000806000838152602001908152602001600020549050919050565b600460009054906101000a900473ffffffffffffffffffffffffffffffffffffffff1673ffffffffffffffffffffffffffffffffffffffff163373ffffffffffffffffffffffffffffffffffffffff1614610372576040517f08c379a00000000000000000000000000000000000000000000000000000000081526004018080602001828103825260138152602001807f53656e646572206973206e6f74206f776e65720000000000000000000000000081525060200191505060405180910390fd5b80600080848152602001908152602001600020819055508160016000838152602001908152602001600020819055507f6d663ee2b4cf058e66f9e5a74c6155bde58a5a717d01ccfb8befad11118c7db18282604051808381526020018281526020019250505060405180910390a15050565b600060026000838152602001908152602001600020549050919050565b600460009054906101000a900473ffffffffffffffffffffffffffffffffffffffff1681565b600060036000838152602001908152602001600020549050919050565b600060016000838152602001908152602001600020549050919050565b600460009054906101000a900473ffffffffffffffffffffffffffffffffffffffff1673ffffffffffffffffffffffffffffffffffffffff163373ffffffffffffffffffffffffffffffffffffffff1614610524576040517f08c379a00000000000000000000000000000000000000000000000000000000081526004018080602001828103825260138152602001807f53656e646572206973206e6f74206f776e65720000000000000000000000000081525060200191505060405180910390fd5b8060026000848152602001908152602001600020819055508160036000838152602001908152602001600020819055507f39d6d5c60e8a0e6f18c49fecf0e34ed043875e510e7ef7ba724731f8d72a6d168282604051808381526020018281526020019250505060405180910390a15050565b600460009054906101000a900473ffffffffffffffffffffffffffffffffffffffff1673ffffffffffffffffffffffffffffffffffffffff163373ffffffffffffffffffffffffffffffffffffffff161461065a576040517f08c379a00000000000000000000000000000000000000000000000000000000081526004018080602001828103825260138152602001807f53656e646572206973206e6f74206f776e65720000000000000000000000000081525060200191505060405180910390fd5b80600460006101000a81548173ffffffffffffffffffffffffffffffffffffffff021916908373ffffffffffffffffffffffffffffffffffffffff1602179055505056fea265627a7a72315820ed145719c33a41e0a62d2bf91cf59e45f35dc61801a99d14c492a00ee5f7a61664736f6c63430005100032",
  "source": "pragma solidity ^0.5.0;\n\n/*\n * @title Price/numberic Pull Oracle mapping contract\n*/\n\ncontract OracleIDDescriptions {\n\n    /*Variables*/\n    mapping(uint=>bytes32) tellorIDtoBytesID;\n    mapping(bytes32 => uint) bytesIDtoTellorID;\n    mapping(uint => int) tellorCodeToStatusCode;\n    mapping(int => uint) statusCodeToTellorCode;\n    address public owner;\n\n    /*Events*/\n    event TellorIdMappedToBytes(uint _requestID, bytes32 _id);\n    event StatusMapped(uint _tellorStatus, int _status);\n    \n\n    /*Functions*/\n    constructor() public{\n        owner =msg.sender;\n    }\n\n    /**\n    * @dev This fucntion allows for ownership transfer\n    * @param newOwner is the address for the new owner\n    */\n    function transferOwnership(address payable newOwner) external {\n        require(msg.sender == owner, \"Sender is not owner\");\n        owner = newOwner;\n    }\n\n    /**\n    * @dev This fuction allows the owner to map the tellor uint data status code to the standarized \n    * ADO int status code such as null, retreived etc...\n    * _tellorStatus uint the tellor status\n    * _status the data ADO standarized int status\n    */\n    function defineTellorCodeToStatusCode(uint _tellorStatus, int _status) external{\n        require(msg.sender == owner, \"Sender is not owner\");\n        tellorCodeToStatusCode[_tellorStatus] = _status;\n        statusCodeToTellorCode[_status] = _tellorStatus;\n        emit StatusMapped(_tellorStatus, _status);\n    }\n\n    /**\n    * @dev Allows owner to map the standarized bytes32 Id to a specific requestID from Tellor\n    * The dev should ensure the _requestId exists otherwise request the data on Tellor to get a requestId\n    * _requestID is the existing Tellor RequestID \n    * _id is the descption of the ID in bytes \n    */ \n    function defineTellorIdToBytesID(uint _requestID, bytes32 _id) external{\n        require(msg.sender == owner, \"Sender is not owner\");\n        tellorIDtoBytesID[_requestID] = _id;\n        bytesIDtoTellorID[_id] = _requestID;\n        emit TellorIdMappedToBytes(_requestID,_id);\n    }\n\n    /**\n    * @dev Getter function for the uint Tellor status code from the specified int ADO standarized status code\n    * @param _status the int ADO standarized status\n    * @return _tellorStatus uint \n    */ \n    function getTellorStatusFromStatus(int _status) public view returns(uint _tellorStatus){\n        return statusCodeToTellorCode[_status];\n    }\n\n    /**\n    * @dev Getter function of the int ADO standarized status code from the specified Tellor uint status\n    * @param _tellorStatus uint \n    * @return _status the int ADO standarized status\n    */ \n    function getStatusFromTellorStatus (uint _tellorStatus) public view returns(int _status) {\n        return tellorCodeToStatusCode[_tellorStatus];\n    }\n    \n    /**\n    * @dev Getter function of the Tellor RequestID based on the specified bytes32 ADO standaraized _id\n    * @param _id is the bytes32 descriptor mapped to an existing Tellor's requestId\n    * @return _requestId is Tellor's requestID corresnpoding to _id\n    */ \n    function getTellorIdFromBytes(bytes32 _id) public view  returns(uint _requestId)  {\n       return bytesIDtoTellorID[_id];\n    }\n\n    /**\n    * @dev Getter function of the bytes32 ADO standaraized _id based on the specified Tellor RequestID \n    * @param _requestId is Tellor's requestID\n    * @return _id is the bytes32 descriptor mapped to an existing Tellor's requestId\n    */ \n    function getBytesFromTellorID(uint _requestId) public view returns(bytes32 _id) {\n        return tellorIDtoBytesID[_requestId];\n    }\n\n}",
  "sourcePath": "C:\\Users\\Frenchy\\Documents\\tellor\\firstTest\\Tellor_first_test\\contracts\\OracleIDDescriptions.sol",
  "compiler": {
    "name": "solc",
    "version": "0.5.16+commit.9c3226ce.Emscripten.clang"
  },
  "schemaVersion": "3.0.23",
  "updatedAt": "2020-02-20T22:47:02.790Z",
  "devdoc": {
    "methods": {
      "defineTellorCodeToStatusCode(uint256,int256)": {
        "details": "This fuction allows the owner to map the tellor uint data status code to the standarized  ADO int status code such as null, retreived etc... _tellorStatus uint the tellor status _status the data ADO standarized int status"
      },
      "defineTellorIdToBytesID(uint256,bytes32)": {
        "details": "Allows owner to map the standarized bytes32 Id to a specific requestID from Tellor The dev should ensure the _requestId exists otherwise request the data on Tellor to get a requestId _requestID is the existing Tellor RequestID  _id is the descption of the ID in bytes "
      },
      "getBytesFromTellorID(uint256)": {
        "details": "Getter function of the bytes32 ADO standaraized _id based on the specified Tellor RequestID ",
        "params": {
          "_requestId": "is Tellor's requestID"
        },
        "return": "_id is the bytes32 descriptor mapped to an existing Tellor's requestId"
      },
      "getStatusFromTellorStatus(uint256)": {
        "details": "Getter function of the int ADO standarized status code from the specified Tellor uint status",
        "params": {
          "_tellorStatus": "uint "
        },
        "return": "_status the int ADO standarized status"
      },
      "getTellorIdFromBytes(bytes32)": {
        "details": "Getter function of the Tellor RequestID based on the specified bytes32 ADO standaraized _id",
        "params": {
          "_id": "is the bytes32 descriptor mapped to an existing Tellor's requestId"
        },
        "return": "_requestId is Tellor's requestID corresnpoding to _id"
      },
      "getTellorStatusFromStatus(int256)": {
        "details": "Getter function for the uint Tellor status code from the specified int ADO standarized status code",
        "params": {
          "_status": "the int ADO standarized status"
        },
        "return": "_tellorStatus uint "
      },
      "transferOwnership(address)": {
        "details": "This fucntion allows for ownership transfer",
        "params": {
          "newOwner": "is the address for the new owner"
        }
      }
    }
  },
  "userdoc": {
    "methods": {}
  }
}